{
  "_format": "hh-sol-artifact-1",
  "contractName": "MaskMint",
  "sourceName": "contracts/MaskMint.sol",
  "abi": [
    {
      "inputs": [
        {
          "internalType": "address",
          "name": "_nctContractAddress",
          "type": "address"
        },
        {
          "internalType": "address",
          "name": "_maskContractAddress",
          "type": "address"
        }
      ],
      "stateMutability": "nonpayable",
      "type": "constructor"
    },
    {
      "inputs": [],
      "name": "MAX_NFT_SUPPLY",
      "outputs": [
        {
          "internalType": "uint256",
          "name": "",
          "type": "uint256"
        }
      ],
      "stateMutability": "view",
      "type": "function"
    },
    {
      "inputs": [
        {
          "internalType": "string",
          "name": "name",
          "type": "string"
        },
        {
          "internalType": "string",
          "name": "symbol",
          "type": "string"
        },
        {
          "internalType": "uint256",
          "name": "maskID",
          "type": "uint256"
        }
      ],
      "name": "deployToken",
      "outputs": [],
      "stateMutability": "nonpayable",
      "type": "function"
    },
    {
      "inputs": [
        {
          "internalType": "uint256",
          "name": "index",
          "type": "uint256"
        }
      ],
      "name": "getContractAtIndex",
      "outputs": [
        {
          "internalType": "address",
          "name": "",
          "type": "address"
        }
      ],
      "stateMutability": "view",
      "type": "function"
    },
    {
      "inputs": [],
      "name": "getNumberOfDeployedContracts",
      "outputs": [
        {
          "internalType": "uint256",
          "name": "",
          "type": "uint256"
        }
      ],
      "stateMutability": "view",
      "type": "function"
    },
    {
      "inputs": [
        {
          "internalType": "uint256",
          "name": "maskID",
          "type": "uint256"
        }
      ],
      "name": "getTokenContract",
      "outputs": [
        {
          "internalType": "address",
          "name": "",
          "type": "address"
        }
      ],
      "stateMutability": "view",
      "type": "function"
    },
    {
      "inputs": [],
      "name": "maskContractAddress",
      "outputs": [
        {
          "internalType": "address",
          "name": "",
          "type": "address"
        }
      ],
      "stateMutability": "view",
      "type": "function"
    },
    {
      "inputs": [],
      "name": "nctContractAddress",
      "outputs": [
        {
          "internalType": "address",
          "name": "",
          "type": "address"
        }
      ],
      "stateMutability": "view",
      "type": "function"
    }
  ],
  "bytecode": "0x60a06040523480156200001157600080fd5b5060405162003de038038062003de0833981810160405281019062000037919062000189565b80600360006101000a81548173ffffffffffffffffffffffffffffffffffffffff021916908373ffffffffffffffffffffffffffffffffffffffff16021790555081600460006101000a81548173ffffffffffffffffffffffffffffffffffffffff021916908373ffffffffffffffffffffffffffffffffffffffff16021790555080600560006101000a81548173ffffffffffffffffffffffffffffffffffffffff021916908373ffffffffffffffffffffffffffffffffffffffff160217905550604051620001089062000164565b604051809103906000f08015801562000125573d6000803e3d6000fd5b5073ffffffffffffffffffffffffffffffffffffffff1660808173ffffffffffffffffffffffffffffffffffffffff1660601b81525050505062000218565b612cdd806200110383390190565b6000815190506200018381620001fe565b92915050565b600080604083850312156200019d57600080fd5b6000620001ad8582860162000172565b9250506020620001c08582860162000172565b9150509250929050565b6000620001d782620001de565b9050919050565b600073ffffffffffffffffffffffffffffffffffffffff82169050919050565b6200020981620001ca565b81146200021557600080fd5b50565b60805160601c610ecc62000237600039600061021b0152610ecc6000f3fe608060405234801561001057600080fd5b506004361061007d5760003560e01c8063a07e51991161005b578063a07e5199146100ec578063b5077f441461011c578063dfb097001461013a578063ee4ac6ee146101585761007d565b80633a93babb14610082578063977e11ad1461009e5780639b534f18146100bc575b600080fd5b61009c600480360381019061009791906108e8565b610176565b005b6100a6610315565b6040516100b39190610bbf565b60405180910390f35b6100d660048036038101906100d19190610967565b61033b565b6040516100e39190610bbf565b60405180910390f35b61010660048036038101906101019190610967565b6103aa565b6040516101139190610bbf565b60405180910390f35b6101246103e1565b6040516101319190610cfd565b60405180910390f35b6101426103e7565b60405161014f9190610cfd565b60405180910390f35b6101606103f8565b60405161016d9190610bbf565b60405180910390f35b61400081106101ba576040517f08c379a00000000000000000000000000000000000000000000000000000000081526004016101b190610c7d565b60405180910390fd5b600015156101d282600061041e90919063ffffffff16565b151514610214576040517f08c379a000000000000000000000000000000000000000000000000000000000815260040161020b90610cbd565b60405180910390fd5b600061023f7f0000000000000000000000000000000000000000000000000000000000000000610438565b90508073ffffffffffffffffffffffffffffffffffffffff16637e77c503858585600460009054906101000a900473ffffffffffffffffffffffffffffffffffffffff16600560009054906101000a900473ffffffffffffffffffffffffffffffffffffffff166040518663ffffffff1660e01b81526004016102c6959493929190610bfc565b600060405180830381600087803b1580156102e057600080fd5b505af11580156102f4573d6000803e3d6000fd5b5050505061030e8282600061050d9092919063ffffffff16565b5050505050565b600460009054906101000a900473ffffffffffffffffffffffffffffffffffffffff1681565b60006103476000610542565b8210610388576040517f08c379a000000000000000000000000000000000000000000000000000000000815260040161037f90610cdd565b60405180910390fd5b600061039e83600061055790919063ffffffff16565b91505080915050919050565b60006103da826040518060600160405280602c8152602001610e6b602c913960006105839092919063ffffffff16565b9050919050565b61400081565b60006103f36000610542565b905090565b600560009054906101000a900473ffffffffffffffffffffffffffffffffffffffff1681565b6000610430836000018360001b6105a2565b905092915050565b60006040517f3d602d80600a3d3981f3363d3d373d3d3d363d7300000000000000000000000081528260601b60148201527f5af43d82803e903d91602b57fd5bf3000000000000000000000000000000000060288201526037816000f0915050600073ffffffffffffffffffffffffffffffffffffffff168173ffffffffffffffffffffffffffffffffffffffff161415610508576040517f08c379a00000000000000000000000000000000000000000000000000000000081526004016104ff90610c9d565b60405180910390fd5b919050565b6000610539846000018460001b8473ffffffffffffffffffffffffffffffffffffffff1660001b6105c2565b90509392505050565b6000610550826000016105fd565b9050919050565b60008060008061056a8660000186610612565b915091508160001c8160001c9350935050509250929050565b6000610596846000018460001b84610652565b60001c90509392505050565b60006105ba82846000016106d390919063ffffffff16565b905092915050565b600081846002016000858152602001908152602001600020819055506105f483856000016106ea90919063ffffffff16565b90509392505050565b600061060b82600001610701565b9050919050565b600080600061062d848660000161071690919063ffffffff16565b9050808560020160008381526020019081526020016000205492509250509250929050565b6000808460020160008581526020019081526020016000205490506000801b81141580610685575061068485856105a2565b5b83906106c7576040517f08c379a00000000000000000000000000000000000000000000000000000000081526004016106be9190610bda565b60405180910390fd5b50809150509392505050565b60006106e2836000018361072d565b905092915050565b60006106f98360000183610750565b905092915050565b600061070f826000016107c0565b9050919050565b600061072583600001836107d1565b905092915050565b600080836001016000848152602001908152602001600020541415905092915050565b600061075c838361072d565b6107b55782600001829080600181540180825580915050600190039060005260206000200160009091909190915055826000018054905083600101600084815260200190815260200160002081905550600190506107ba565b600090505b92915050565b600081600001805490509050919050565b60008183600001805490501161081c576040517f08c379a000000000000000000000000000000000000000000000000000000000815260040161081390610c5d565b60405180910390fd5b826000018281548110610858577f4e487b7100000000000000000000000000000000000000000000000000000000600052603260045260246000fd5b9060005260206000200154905092915050565b600061087e61087984610d49565b610d18565b90508281526020810184848401111561089657600080fd5b6108a1848285610dd1565b509392505050565b600082601f8301126108ba57600080fd5b81356108ca84826020860161086b565b91505092915050565b6000813590506108e281610e53565b92915050565b6000806000606084860312156108fd57600080fd5b600084013567ffffffffffffffff81111561091757600080fd5b610923868287016108a9565b935050602084013567ffffffffffffffff81111561094057600080fd5b61094c868287016108a9565b925050604061095d868287016108d3565b9150509250925092565b60006020828403121561097957600080fd5b6000610987848285016108d3565b91505092915050565b61099981610d95565b82525050565b60006109aa82610d79565b6109b48185610d84565b93506109c4818560208601610de0565b6109cd81610e42565b840191505092915050565b60006109e5602283610d84565b91507f456e756d657261626c655365743a20696e646578206f7574206f6620626f756e60008301527f64730000000000000000000000000000000000000000000000000000000000006020830152604082019050919050565b6000610a4b603083610d84565b91507f4572726f723a2043616e6e6f74206465706c6f7920636f6e747261637420666f60008301527f7220696e76616c6964204d61736b4944000000000000000000000000000000006020830152604082019050919050565b6000610ab1601683610d84565b91507f455243313136373a20637265617465206661696c6564000000000000000000006000830152602082019050919050565b6000610af1603883610d84565b91507f4572726f723a20546f6b656e20636f6e747261637420666f722074686973206d60008301527f61736b20697320616c7265616479206465706c6f7965642100000000000000006020830152604082019050919050565b6000610b57602b83610d84565b91507f4572726f723a20496e76616c696420696e64657820666f72206465706c6f796560008301527f6420636f6e7472616374730000000000000000000000000000000000000000006020830152604082019050919050565b610bb981610dc7565b82525050565b6000602082019050610bd46000830184610990565b92915050565b60006020820190508181036000830152610bf4818461099f565b905092915050565b600060a0820190508181036000830152610c16818861099f565b90508181036020830152610c2a818761099f565b9050610c396040830186610bb0565b610c466060830185610990565b610c536080830184610990565b9695505050505050565b60006020820190508181036000830152610c76816109d8565b9050919050565b60006020820190508181036000830152610c9681610a3e565b9050919050565b60006020820190508181036000830152610cb681610aa4565b9050919050565b60006020820190508181036000830152610cd681610ae4565b9050919050565b60006020820190508181036000830152610cf681610b4a565b9050919050565b6000602082019050610d126000830184610bb0565b92915050565b6000604051905081810181811067ffffffffffffffff82111715610d3f57610d3e610e13565b5b8060405250919050565b600067ffffffffffffffff821115610d6457610d63610e13565b5b601f19601f8301169050602081019050919050565b600081519050919050565b600082825260208201905092915050565b6000610da082610da7565b9050919050565b600073ffffffffffffffffffffffffffffffffffffffff82169050919050565b6000819050919050565b82818337600083830152505050565b60005b83811015610dfe578082015181840152602081019050610de3565b83811115610e0d576000848401525b50505050565b7f4e487b7100000000000000000000000000000000000000000000000000000000600052604160045260246000fd5b6000601f19601f8301169050919050565b610e5c81610dc7565b8114610e6757600080fd5b5056fe4572726f723a20546f6b656e20636f6e747261637420686173206e6f74206265656e206465706c6f79656421a2646970667358221220b7d3c94eab245dad3cda93234bc208c2fa4b85a25729e0113a6473b04b746acb64736f6c63430008000033608060405234801561001057600080fd5b50612cbd806100206000396000f3fe608060405234801561001057600080fd5b50600436106101165760003560e01c806370a08231116100a2578063a0712d6811610071578063a0712d68146102e1578063a3895fff146102fd578063a457c2d714610319578063a9059cbb14610349578063dd62ed3e1461037957610116565b806370a082311461025b57806379cc67901461028b5780637e77c503146102a757806395d89b41146102c357610116565b8063313ce567116100e9578063313ce567146101b757806339509351146101d557806342966c68146102055780635353a2d8146102215780636675e18f1461023d57610116565b806306fdde031461011b578063095ea7b31461013957806318160ddd1461016957806323b872dd14610187575b600080fd5b6101236103a9565b60405161013091906126e2565b60405180910390f35b610153600480360381019061014e9190611e33565b61043b565b60405161016091906126c7565b60405180910390f35b610171610459565b60405161017e91906128e4565b60405180910390f35b6101a1600480360381019061019c9190611de4565b610463565b6040516101ae91906126c7565b60405180910390f35b6101bf610564565b6040516101cc91906128ff565b60405180910390f35b6101ef60048036038101906101ea9190611e33565b61056d565b6040516101fc91906126c7565b60405180910390f35b61021f600480360381019061021a9190611f80565b610619565b005b61023b60048036038101906102369190611e98565b61062d565b005b610245610792565b60405161025291906128e4565b60405180910390f35b61027560048036038101906102709190611d56565b610798565b60405161028291906128e4565b60405180910390f35b6102a560048036038101906102a09190611e33565b6107e1565b005b6102c160048036038101906102bc9190611ed9565b610865565b005b6102cb6109d6565b6040516102d891906126e2565b60405180910390f35b6102fb60048036038101906102f69190611f80565b610a68565b005b61031760048036038101906103129190611e98565b610dde565b005b610333600480360381019061032e9190611e33565b610f43565b60405161034091906126c7565b60405180910390f35b610363600480360381019061035e9190611e33565b611037565b60405161037091906126c7565b60405180910390f35b610393600480360381019061038e9190611da8565b611055565b6040516103a091906128e4565b60405180910390f35b6060603680546103b890612b43565b80601f01602080910402602001604051908101604052809291908181526020018280546103e490612b43565b80156104315780601f1061040657610100808354040283529160200191610431565b820191906000526020600020905b81548152906001019060200180831161041457829003601f168201915b5050505050905090565b600061044f6104486110dc565b84846110e4565b6001905092915050565b6000603554905090565b60006104708484846112af565b6000603460008673ffffffffffffffffffffffffffffffffffffffff1673ffffffffffffffffffffffffffffffffffffffff16815260200190815260200160002060006104bb6110dc565b73ffffffffffffffffffffffffffffffffffffffff1673ffffffffffffffffffffffffffffffffffffffff1681526020019081526020016000205490508281101561053b576040517f08c379a0000000000000000000000000000000000000000000000000000000008152600401610532906127e4565b60405180910390fd5b610558856105476110dc565b85846105539190612a78565b6110e4565b60019150509392505050565b60006012905090565b600061060f61057a6110dc565b8484603460006105886110dc565b73ffffffffffffffffffffffffffffffffffffffff1673ffffffffffffffffffffffffffffffffffffffff16815260200190815260200160002060008873ffffffffffffffffffffffffffffffffffffffff1673ffffffffffffffffffffffffffffffffffffffff1681526020019081526020016000205461060a9190612997565b6110e4565b6001905092915050565b61062a6106246110dc565b82611531565b50565b336000606760009054906101000a900473ffffffffffffffffffffffffffffffffffffffff1673ffffffffffffffffffffffffffffffffffffffff16636352211e6065546040518263ffffffff1660e01b815260040161068d91906128e4565b60206040518083038186803b1580156106a557600080fd5b505afa1580156106b9573d6000803e3d6000fd5b505050506040513d601f19601f820116820180604052508101906106dd9190611d7f565b90508073ffffffffffffffffffffffffffffffffffffffff168273ffffffffffffffffffffffffffffffffffffffff161461074d576040517f08c379a0000000000000000000000000000000000000000000000000000000008152600401610744906127c4565b60405180910390fd5b61075683611707565b7fd3807fa54fb4a876f91813a2da7f5c40d1370d627f4837d7090b0118ac909f4a8360405161078591906126e2565b60405180910390a1505050565b60655481565b6000603360008373ffffffffffffffffffffffffffffffffffffffff1673ffffffffffffffffffffffffffffffffffffffff168152602001908152602001600020549050919050565b60006107f4836107ef6110dc565b611055565b905081811015610839576040517f08c379a000000000000000000000000000000000000000000000000000000000815260040161083090612804565b60405180910390fd5b610856836108456110dc565b84846108519190612a78565b6110e4565b6108608383611531565b505050565b600060019054906101000a900460ff168061088b575060008054906101000a900460ff16155b6108ca576040517f08c379a00000000000000000000000000000000000000000000000000000000081526004016108c1906127a4565b60405180910390fd5b60008060019054906101000a900460ff16159050801561091a576001600060016101000a81548160ff02191690831515021790555060016000806101000a81548160ff0219169083151502179055505b6109248686611721565b8360658190555082606660006101000a81548173ffffffffffffffffffffffffffffffffffffffff021916908373ffffffffffffffffffffffffffffffffffffffff16021790555081606760006101000a81548173ffffffffffffffffffffffffffffffffffffffff021916908373ffffffffffffffffffffffffffffffffffffffff16021790555080156109ce5760008060016101000a81548160ff0219169083151502179055505b505050505050565b6060603780546109e590612b43565b80601f0160208091040260200160405190810160405280929190818152602001828054610a1190612b43565b8015610a5e5780601f10610a3357610100808354040283529160200191610a5e565b820191906000526020600020905b815481529060010190602001808311610a4157829003601f168201915b5050505050905090565b6000606760009054906101000a900473ffffffffffffffffffffffffffffffffffffffff1673ffffffffffffffffffffffffffffffffffffffff16636352211e6065546040518263ffffffff1660e01b8152600401610ac791906128e4565b60206040518083038186803b158015610adf57600080fd5b505afa158015610af3573d6000803e3d6000fd5b505050506040513d601f19601f82011682018060405250810190610b179190611d7f565b90506000610b2361180e565b90508083610b2f610459565b610b399190612997565b1115610b7a576040517f08c379a0000000000000000000000000000000000000000000000000000000008152600401610b7190612784565b60405180910390fd5b6000606660009054906101000a900473ffffffffffffffffffffffffffffffffffffffff1673ffffffffffffffffffffffffffffffffffffffff1663dd62ed3e33306040518363ffffffff1660e01b8152600401610bd9929190612667565b60206040518083038186803b158015610bf157600080fd5b505afa158015610c05573d6000803e3d6000fd5b505050506040513d601f19601f82011682018060405250810190610c299190611fa9565b905083811015610c6e576040517f08c379a0000000000000000000000000000000000000000000000000000000008152600401610c6590612884565b60405180910390fd5b606660009054906101000a900473ffffffffffffffffffffffffffffffffffffffff1673ffffffffffffffffffffffffffffffffffffffff166323b872dd3330876040518463ffffffff1660e01b8152600401610ccd93929190612690565b602060405180830381600087803b158015610ce757600080fd5b505af1158015610cfb573d6000803e3d6000fd5b505050506040513d601f19601f82011682018060405250810190610d1f9190611e6f565b50606660009054906101000a900473ffffffffffffffffffffffffffffffffffffffff1673ffffffffffffffffffffffffffffffffffffffff166342966c68856040518263ffffffff1660e01b8152600401610d7b91906128e4565b602060405180830381600087803b158015610d9557600080fd5b505af1158015610da9573d6000803e3d6000fd5b505050506040513d601f19601f82011682018060405250810190610dcd9190611e6f565b50610dd88385611860565b50505050565b336000606760009054906101000a900473ffffffffffffffffffffffffffffffffffffffff1673ffffffffffffffffffffffffffffffffffffffff16636352211e6065546040518263ffffffff1660e01b8152600401610e3e91906128e4565b60206040518083038186803b158015610e5657600080fd5b505afa158015610e6a573d6000803e3d6000fd5b505050506040513d601f19601f82011682018060405250810190610e8e9190611d7f565b90508073ffffffffffffffffffffffffffffffffffffffff168273ffffffffffffffffffffffffffffffffffffffff1614610efe576040517f08c379a0000000000000000000000000000000000000000000000000000000008152600401610ef5906127c4565b60405180910390fd5b610f07836119b5565b7f0f3a31d60784657cf907bc521341ccc7c0c19faba58538cd9c14ac5b4887737483604051610f3691906126e2565b60405180910390a1505050565b60008060346000610f526110dc565b73ffffffffffffffffffffffffffffffffffffffff1673ffffffffffffffffffffffffffffffffffffffff16815260200190815260200160002060008573ffffffffffffffffffffffffffffffffffffffff1673ffffffffffffffffffffffffffffffffffffffff1681526020019081526020016000205490508281101561100f576040517f08c379a0000000000000000000000000000000000000000000000000000000008152600401611006906128a4565b60405180910390fd5b61102c61101a6110dc565b8585846110279190612a78565b6110e4565b600191505092915050565b600061104b6110446110dc565b84846112af565b6001905092915050565b6000603460008473ffffffffffffffffffffffffffffffffffffffff1673ffffffffffffffffffffffffffffffffffffffff16815260200190815260200160002060008373ffffffffffffffffffffffffffffffffffffffff1673ffffffffffffffffffffffffffffffffffffffff16815260200190815260200160002054905092915050565b600033905090565b600073ffffffffffffffffffffffffffffffffffffffff168373ffffffffffffffffffffffffffffffffffffffff161415611154576040517f08c379a000000000000000000000000000000000000000000000000000000000815260040161114b90612864565b60405180910390fd5b600073ffffffffffffffffffffffffffffffffffffffff168273ffffffffffffffffffffffffffffffffffffffff1614156111c4576040517f08c379a00000000000000000000000000000000000000000000000000000000081526004016111bb90612744565b60405180910390fd5b80603460008573ffffffffffffffffffffffffffffffffffffffff1673ffffffffffffffffffffffffffffffffffffffff16815260200190815260200160002060008473ffffffffffffffffffffffffffffffffffffffff1673ffffffffffffffffffffffffffffffffffffffff168152602001908152602001600020819055508173ffffffffffffffffffffffffffffffffffffffff168373ffffffffffffffffffffffffffffffffffffffff167f8c5be1e5ebec7d5bd14f71427d1e84f3dd0314c0f7b2291e5b200ac8c7c3b925836040516112a291906128e4565b60405180910390a3505050565b600073ffffffffffffffffffffffffffffffffffffffff168373ffffffffffffffffffffffffffffffffffffffff16141561131f576040517f08c379a000000000000000000000000000000000000000000000000000000000815260040161131690612844565b60405180910390fd5b600073ffffffffffffffffffffffffffffffffffffffff168273ffffffffffffffffffffffffffffffffffffffff16141561138f576040517f08c379a000000000000000000000000000000000000000000000000000000000815260040161138690612704565b60405180910390fd5b61139a8383836119cf565b6000603360008573ffffffffffffffffffffffffffffffffffffffff1673ffffffffffffffffffffffffffffffffffffffff16815260200190815260200160002054905081811015611421576040517f08c379a000000000000000000000000000000000000000000000000000000000815260040161141890612764565b60405180910390fd5b818161142d9190612a78565b603360008673ffffffffffffffffffffffffffffffffffffffff1673ffffffffffffffffffffffffffffffffffffffff1681526020019081526020016000208190555081603360008573ffffffffffffffffffffffffffffffffffffffff1673ffffffffffffffffffffffffffffffffffffffff16815260200190815260200160002060008282546114bf9190612997565b925050819055508273ffffffffffffffffffffffffffffffffffffffff168473ffffffffffffffffffffffffffffffffffffffff167fddf252ad1be2c89b69c2b068fc378daa952ba7f163c4a11628f55a4df523b3ef8460405161152391906128e4565b60405180910390a350505050565b600073ffffffffffffffffffffffffffffffffffffffff168273ffffffffffffffffffffffffffffffffffffffff1614156115a1576040517f08c379a000000000000000000000000000000000000000000000000000000000815260040161159890612824565b60405180910390fd5b6115ad826000836119cf565b6000603360008473ffffffffffffffffffffffffffffffffffffffff1673ffffffffffffffffffffffffffffffffffffffff16815260200190815260200160002054905081811015611634576040517f08c379a000000000000000000000000000000000000000000000000000000000815260040161162b90612724565b60405180910390fd5b81816116409190612a78565b603360008573ffffffffffffffffffffffffffffffffffffffff1673ffffffffffffffffffffffffffffffffffffffff1681526020019081526020016000208190555081603560008282546116959190612a78565b92505081905550600073ffffffffffffffffffffffffffffffffffffffff168373ffffffffffffffffffffffffffffffffffffffff167fddf252ad1be2c89b69c2b068fc378daa952ba7f163c4a11628f55a4df523b3ef846040516116fa91906128e4565b60405180910390a3505050565b806036908051906020019061171d929190611be2565b5050565b600060019054906101000a900460ff1680611747575060008054906101000a900460ff16155b611786576040517f08c379a000000000000000000000000000000000000000000000000000000000815260040161177d906127a4565b60405180910390fd5b60008060019054906101000a900460ff1615905080156117d6576001600060016101000a81548160ff02191690831515021790555060016000806101000a81548160ff0219169083151502179055505b6117de6119d4565b6117e88383611aad565b80156118095760008060016101000a81548160ff0219169083151502179055505b505050565b6000806372ded4704210611826576372ded470611828565b425b905061185a6201518061184c678ac7230489e8000084611bb690919063ffffffff16565b611bcc90919063ffffffff16565b91505090565b600073ffffffffffffffffffffffffffffffffffffffff168273ffffffffffffffffffffffffffffffffffffffff1614156118d0576040517f08c379a00000000000000000000000000000000000000000000000000000000081526004016118c7906128c4565b60405180910390fd5b6118dc600083836119cf565b80603560008282546118ee9190612997565b9250508190555080603360008473ffffffffffffffffffffffffffffffffffffffff1673ffffffffffffffffffffffffffffffffffffffff16815260200190815260200160002060008282546119449190612997565b925050819055508173ffffffffffffffffffffffffffffffffffffffff16600073ffffffffffffffffffffffffffffffffffffffff167fddf252ad1be2c89b69c2b068fc378daa952ba7f163c4a11628f55a4df523b3ef836040516119a991906128e4565b60405180910390a35050565b80603790805190602001906119cb929190611be2565b5050565b505050565b600060019054906101000a900460ff16806119fa575060008054906101000a900460ff16155b611a39576040517f08c379a0000000000000000000000000000000000000000000000000000000008152600401611a30906127a4565b60405180910390fd5b60008060019054906101000a900460ff161590508015611a89576001600060016101000a81548160ff02191690831515021790555060016000806101000a81548160ff0219169083151502179055505b8015611aaa5760008060016101000a81548160ff0219169083151502179055505b50565b600060019054906101000a900460ff1680611ad3575060008054906101000a900460ff16155b611b12576040517f08c379a0000000000000000000000000000000000000000000000000000000008152600401611b09906127a4565b60405180910390fd5b60008060019054906101000a900460ff161590508015611b62576001600060016101000a81548160ff02191690831515021790555060016000806101000a81548160ff0219169083151502179055505b8260369080519060200190611b78929190611be2565b508160379080519060200190611b8f929190611be2565b508015611bb15760008060016101000a81548160ff0219169083151502179055505b505050565b60008183611bc49190612a1e565b905092915050565b60008183611bda91906129ed565b905092915050565b828054611bee90612b43565b90600052602060002090601f016020900481019282611c105760008555611c57565b82601f10611c2957805160ff1916838001178555611c57565b82800160010185558215611c57579182015b82811115611c56578251825591602001919060010190611c3b565b5b509050611c649190611c68565b5090565b5b80821115611c81576000816000905550600101611c69565b5090565b6000611c98611c938461294b565b61291a565b905082815260208101848484011115611cb057600080fd5b611cbb848285612b01565b509392505050565b600081359050611cd281612c42565b92915050565b600081519050611ce781612c42565b92915050565b600081519050611cfc81612c59565b92915050565b600082601f830112611d1357600080fd5b8135611d23848260208601611c85565b91505092915050565b600081359050611d3b81612c70565b92915050565b600081519050611d5081612c70565b92915050565b600060208284031215611d6857600080fd5b6000611d7684828501611cc3565b91505092915050565b600060208284031215611d9157600080fd5b6000611d9f84828501611cd8565b91505092915050565b60008060408385031215611dbb57600080fd5b6000611dc985828601611cc3565b9250506020611dda85828601611cc3565b9150509250929050565b600080600060608486031215611df957600080fd5b6000611e0786828701611cc3565b9350506020611e1886828701611cc3565b9250506040611e2986828701611d2c565b9150509250925092565b60008060408385031215611e4657600080fd5b6000611e5485828601611cc3565b9250506020611e6585828601611d2c565b9150509250929050565b600060208284031215611e8157600080fd5b6000611e8f84828501611ced565b91505092915050565b600060208284031215611eaa57600080fd5b600082013567ffffffffffffffff811115611ec457600080fd5b611ed084828501611d02565b91505092915050565b600080600080600060a08688031215611ef157600080fd5b600086013567ffffffffffffffff811115611f0b57600080fd5b611f1788828901611d02565b955050602086013567ffffffffffffffff811115611f3457600080fd5b611f4088828901611d02565b9450506040611f5188828901611d2c565b9350506060611f6288828901611cc3565b9250506080611f7388828901611cc3565b9150509295509295909350565b600060208284031215611f9257600080fd5b6000611fa084828501611d2c565b91505092915050565b600060208284031215611fbb57600080fd5b6000611fc984828501611d41565b91505092915050565b611fdb81612aac565b82525050565b611fea81612abe565b82525050565b6000611ffb8261297b565b6120058185612986565b9350612015818560208601612b10565b61201e81612c31565b840191505092915050565b6000612036602383612986565b91507f45524332303a207472616e7366657220746f20746865207a65726f206164647260008301527f65737300000000000000000000000000000000000000000000000000000000006020830152604082019050919050565b600061209c602283612986565b91507f45524332303a206275726e20616d6f756e7420657863656564732062616c616e60008301527f63650000000000000000000000000000000000000000000000000000000000006020830152604082019050919050565b6000612102602283612986565b91507f45524332303a20617070726f766520746f20746865207a65726f20616464726560008301527f73730000000000000000000000000000000000000000000000000000000000006020830152604082019050919050565b6000612168602683612986565b91507f45524332303a207472616e7366657220616d6f756e742065786365656473206260008301527f616c616e636500000000000000000000000000000000000000000000000000006020830152604082019050919050565b60006121ce604d83612986565b91507f43616e6e6f74206d696e74206d6f726520746f6b656e73207468616e2074686560008301527f20616d6f756e74206f66204e43542061206d61736b2068617320616363756d7560208301527f6c6174656420736f2066617221000000000000000000000000000000000000006040830152606082019050919050565b600061225a602e83612986565b91507f496e697469616c697a61626c653a20636f6e747261637420697320616c72656160008301527f647920696e697469616c697a65640000000000000000000000000000000000006020830152604082019050919050565b60006122c0602e83612986565b91507f4f7065726174696f6e206d6179206f6e6c7920626520706572666f726d65642060008301527f6279206d61736b206f776e6572210000000000000000000000000000000000006020830152604082019050919050565b6000612326602883612986565b91507f45524332303a207472616e7366657220616d6f756e742065786365656473206160008301527f6c6c6f77616e63650000000000000000000000000000000000000000000000006020830152604082019050919050565b600061238c602483612986565b91507f45524332303a206275726e20616d6f756e74206578636565647320616c6c6f7760008301527f616e6365000000000000000000000000000000000000000000000000000000006020830152604082019050919050565b60006123f2602183612986565b91507f45524332303a206275726e2066726f6d20746865207a65726f2061646472657360008301527f73000000000000000000000000000000000000000000000000000000000000006020830152604082019050919050565b6000612458602583612986565b91507f45524332303a207472616e736665722066726f6d20746865207a65726f20616460008301527f64726573730000000000000000000000000000000000000000000000000000006020830152604082019050919050565b60006124be602483612986565b91507f45524332303a20617070726f76652066726f6d20746865207a65726f2061646460008301527f72657373000000000000000000000000000000000000000000000000000000006020830152604082019050919050565b6000612524604883612986565b91507f436f6e747261637420686173206e6f74206265656e20676976656e206170707260008301527f6f76616c20746f207370656e64204e4354206e656365737361727920666f722060208301527f6d696e74696e67210000000000000000000000000000000000000000000000006040830152606082019050919050565b60006125b0602583612986565b91507f45524332303a2064656372656173656420616c6c6f77616e63652062656c6f7760008301527f207a65726f0000000000000000000000000000000000000000000000000000006020830152604082019050919050565b6000612616601f83612986565b91507f45524332303a206d696e7420746f20746865207a65726f2061646472657373006000830152602082019050919050565b61265281612aea565b82525050565b61266181612af4565b82525050565b600060408201905061267c6000830185611fd2565b6126896020830184611fd2565b9392505050565b60006060820190506126a56000830186611fd2565b6126b26020830185611fd2565b6126bf6040830184612649565b949350505050565b60006020820190506126dc6000830184611fe1565b92915050565b600060208201905081810360008301526126fc8184611ff0565b905092915050565b6000602082019050818103600083015261271d81612029565b9050919050565b6000602082019050818103600083015261273d8161208f565b9050919050565b6000602082019050818103600083015261275d816120f5565b9050919050565b6000602082019050818103600083015261277d8161215b565b9050919050565b6000602082019050818103600083015261279d816121c1565b9050919050565b600060208201905081810360008301526127bd8161224d565b9050919050565b600060208201905081810360008301526127dd816122b3565b9050919050565b600060208201905081810360008301526127fd81612319565b9050919050565b6000602082019050818103600083015261281d8161237f565b9050919050565b6000602082019050818103600083015261283d816123e5565b9050919050565b6000602082019050818103600083015261285d8161244b565b9050919050565b6000602082019050818103600083015261287d816124b1565b9050919050565b6000602082019050818103600083015261289d81612517565b9050919050565b600060208201905081810360008301526128bd816125a3565b9050919050565b600060208201905081810360008301526128dd81612609565b9050919050565b60006020820190506128f96000830184612649565b92915050565b60006020820190506129146000830184612658565b92915050565b6000604051905081810181811067ffffffffffffffff8211171561294157612940612c02565b5b8060405250919050565b600067ffffffffffffffff82111561296657612965612c02565b5b601f19601f8301169050602081019050919050565b600081519050919050565b600082825260208201905092915050565b60006129a282612aea565b91506129ad83612aea565b9250827fffffffffffffffffffffffffffffffffffffffffffffffffffffffffffffffff038211156129e2576129e1612b75565b5b828201905092915050565b60006129f882612aea565b9150612a0383612aea565b925082612a1357612a12612ba4565b5b828204905092915050565b6000612a2982612aea565b9150612a3483612aea565b9250817fffffffffffffffffffffffffffffffffffffffffffffffffffffffffffffffff0483118215151615612a6d57612a6c612b75565b5b828202905092915050565b6000612a8382612aea565b9150612a8e83612aea565b925082821015612aa157612aa0612b75565b5b828203905092915050565b6000612ab782612aca565b9050919050565b60008115159050919050565b600073ffffffffffffffffffffffffffffffffffffffff82169050919050565b6000819050919050565b600060ff82169050919050565b82818337600083830152505050565b60005b83811015612b2e578082015181840152602081019050612b13565b83811115612b3d576000848401525b50505050565b60006002820490506001821680612b5b57607f821691505b60208210811415612b6f57612b6e612bd3565b5b50919050565b7f4e487b7100000000000000000000000000000000000000000000000000000000600052601160045260246000fd5b7f4e487b7100000000000000000000000000000000000000000000000000000000600052601260045260246000fd5b7f4e487b7100000000000000000000000000000000000000000000000000000000600052602260045260246000fd5b7f4e487b7100000000000000000000000000000000000000000000000000000000600052604160045260246000fd5b6000601f19601f8301169050919050565b612c4b81612aac565b8114612c5657600080fd5b50565b612c6281612abe565b8114612c6d57600080fd5b50565b612c7981612aea565b8114612c8457600080fd5b5056fea26469706673582212205e1e6fc1e911e7b4de66acd3d2c1ed04c8e5bd2d8a05f983e3217c358147c12164736f6c63430008000033",
  "linkReferences": {},
  "deployedLinkReferences": {}
}